{
  "contractName": "Election",
  "abi": [
    {
      "inputs": [],
      "stateMutability": "nonpayable",
      "type": "constructor"
    },
    {
      "anonymous": false,
      "inputs": [
        {
          "indexed": true,
          "internalType": "address",
          "name": "owner",
          "type": "address"
        },
        {
          "indexed": true,
          "internalType": "address",
          "name": "approved",
          "type": "address"
        },
        {
          "indexed": true,
          "internalType": "uint256",
          "name": "tokenId",
          "type": "uint256"
        }
      ],
      "name": "Approval",
      "type": "event"
    },
    {
      "anonymous": false,
      "inputs": [
        {
          "indexed": true,
          "internalType": "address",
          "name": "owner",
          "type": "address"
        },
        {
          "indexed": true,
          "internalType": "address",
          "name": "operator",
          "type": "address"
        },
        {
          "indexed": false,
          "internalType": "bool",
          "name": "approved",
          "type": "bool"
        }
      ],
      "name": "ApprovalForAll",
      "type": "event"
    },
    {
      "anonymous": false,
      "inputs": [
        {
          "indexed": true,
          "internalType": "address",
          "name": "from",
          "type": "address"
        },
        {
          "indexed": true,
          "internalType": "address",
          "name": "to",
          "type": "address"
        },
        {
          "indexed": true,
          "internalType": "uint256",
          "name": "tokenId",
          "type": "uint256"
        }
      ],
      "name": "Transfer",
      "type": "event"
    },
    {
      "inputs": [
        {
          "internalType": "address",
          "name": "to",
          "type": "address"
        },
        {
          "internalType": "uint256",
          "name": "tokenId",
          "type": "uint256"
        }
      ],
      "name": "approve",
      "outputs": [],
      "stateMutability": "nonpayable",
      "type": "function"
    },
    {
      "inputs": [
        {
          "internalType": "address",
          "name": "owner",
          "type": "address"
        }
      ],
      "name": "balanceOf",
      "outputs": [
        {
          "internalType": "uint256",
          "name": "",
          "type": "uint256"
        }
      ],
      "stateMutability": "view",
      "type": "function",
      "constant": true
    },
    {
      "inputs": [
        {
          "internalType": "uint256",
          "name": "",
          "type": "uint256"
        }
      ],
      "name": "candi",
      "outputs": [
        {
          "internalType": "string",
          "name": "",
          "type": "string"
        }
      ],
      "stateMutability": "view",
      "type": "function",
      "constant": true
    },
    {
      "inputs": [
        {
          "internalType": "uint256",
          "name": "",
          "type": "uint256"
        }
      ],
      "name": "candidates",
      "outputs": [
        {
          "internalType": "uint256",
          "name": "id",
          "type": "uint256"
        },
        {
          "internalType": "string",
          "name": "name",
          "type": "string"
        },
        {
          "internalType": "uint256",
          "name": "votecount",
          "type": "uint256"
        }
      ],
      "stateMutability": "view",
      "type": "function",
      "constant": true
    },
    {
      "inputs": [],
      "name": "candidatesCount",
      "outputs": [
        {
          "internalType": "uint256",
          "name": "",
          "type": "uint256"
        }
      ],
      "stateMutability": "view",
      "type": "function",
      "constant": true
    },
    {
      "inputs": [
        {
          "internalType": "uint256",
          "name": "tokenId",
          "type": "uint256"
        }
      ],
      "name": "getApproved",
      "outputs": [
        {
          "internalType": "address",
          "name": "",
          "type": "address"
        }
      ],
      "stateMutability": "view",
      "type": "function",
      "constant": true
    },
    {
      "inputs": [
        {
          "internalType": "address",
          "name": "owner",
          "type": "address"
        },
        {
          "internalType": "address",
          "name": "operator",
          "type": "address"
        }
      ],
      "name": "isApprovedForAll",
      "outputs": [
        {
          "internalType": "bool",
          "name": "",
          "type": "bool"
        }
      ],
      "stateMutability": "view",
      "type": "function",
      "constant": true
    },
    {
      "inputs": [],
      "name": "name",
      "outputs": [
        {
          "internalType": "string",
          "name": "",
          "type": "string"
        }
      ],
      "stateMutability": "view",
      "type": "function",
      "constant": true
    },
    {
      "inputs": [
        {
          "internalType": "uint256",
          "name": "tokenId",
          "type": "uint256"
        }
      ],
      "name": "ownerOf",
      "outputs": [
        {
          "internalType": "address",
          "name": "",
          "type": "address"
        }
      ],
      "stateMutability": "view",
      "type": "function",
      "constant": true
    },
    {
      "inputs": [
        {
          "internalType": "address",
          "name": "from",
          "type": "address"
        },
        {
          "internalType": "address",
          "name": "to",
          "type": "address"
        },
        {
          "internalType": "uint256",
          "name": "tokenId",
          "type": "uint256"
        }
      ],
      "name": "safeTransferFrom",
      "outputs": [],
      "stateMutability": "nonpayable",
      "type": "function"
    },
    {
      "inputs": [
        {
          "internalType": "address",
          "name": "from",
          "type": "address"
        },
        {
          "internalType": "address",
          "name": "to",
          "type": "address"
        },
        {
          "internalType": "uint256",
          "name": "tokenId",
          "type": "uint256"
        },
        {
          "internalType": "bytes",
          "name": "_data",
          "type": "bytes"
        }
      ],
      "name": "safeTransferFrom",
      "outputs": [],
      "stateMutability": "nonpayable",
      "type": "function"
    },
    {
      "inputs": [
        {
          "internalType": "address",
          "name": "operator",
          "type": "address"
        },
        {
          "internalType": "bool",
          "name": "approved",
          "type": "bool"
        }
      ],
      "name": "setApprovalForAll",
      "outputs": [],
      "stateMutability": "nonpayable",
      "type": "function"
    },
    {
      "inputs": [],
      "name": "symbol",
      "outputs": [
        {
          "internalType": "string",
          "name": "",
          "type": "string"
        }
      ],
      "stateMutability": "view",
      "type": "function",
      "constant": true
    },
    {
      "inputs": [
        {
          "internalType": "uint256",
          "name": "index",
          "type": "uint256"
        }
      ],
      "name": "tokenByIndex",
      "outputs": [
        {
          "internalType": "uint256",
          "name": "",
          "type": "uint256"
        }
      ],
      "stateMutability": "view",
      "type": "function",
      "constant": true
    },
    {
      "inputs": [
        {
          "internalType": "address",
          "name": "owner",
          "type": "address"
        },
        {
          "internalType": "uint256",
          "name": "index",
          "type": "uint256"
        }
      ],
      "name": "tokenOfOwnerByIndex",
      "outputs": [
        {
          "internalType": "uint256",
          "name": "",
          "type": "uint256"
        }
      ],
      "stateMutability": "view",
      "type": "function",
      "constant": true
    },
    {
      "inputs": [
        {
          "internalType": "uint256",
          "name": "tokenId",
          "type": "uint256"
        }
      ],
      "name": "tokenURI",
      "outputs": [
        {
          "internalType": "string",
          "name": "",
          "type": "string"
        }
      ],
      "stateMutability": "view",
      "type": "function",
      "constant": true
    },
    {
      "inputs": [],
      "name": "totalSupply",
      "outputs": [
        {
          "internalType": "uint256",
          "name": "",
          "type": "uint256"
        }
      ],
      "stateMutability": "view",
      "type": "function",
      "constant": true
    },
    {
      "inputs": [
        {
          "internalType": "address",
          "name": "from",
          "type": "address"
        },
        {
          "internalType": "address",
          "name": "to",
          "type": "address"
        },
        {
          "internalType": "uint256",
          "name": "tokenId",
          "type": "uint256"
        }
      ],
      "name": "transferFrom",
      "outputs": [],
      "stateMutability": "nonpayable",
      "type": "function"
    },
    {
      "inputs": [
        {
          "internalType": "address",
          "name": "",
          "type": "address"
        }
      ],
      "name": "voters",
      "outputs": [
        {
          "internalType": "bool",
          "name": "",
          "type": "bool"
        }
      ],
      "stateMutability": "view",
      "type": "function",
      "constant": true
    },
    {
      "inputs": [
        {
          "internalType": "string",
          "name": "_name",
          "type": "string"
        }
      ],
      "name": "Contestent",
      "outputs": [],
      "stateMutability": "nonpayable",
      "type": "function"
    },
    {
      "inputs": [
        {
          "internalType": "uint256",
          "name": "_candidateId",
          "type": "uint256"
        }
      ],
      "name": "vote",
      "outputs": [],
      "stateMutability": "nonpayable",
      "type": "function"
    },
    {
      "inputs": [
        {
          "internalType": "bytes4",
          "name": "interfaceId",
          "type": "bytes4"
        }
      ],
      "name": "supportsInterface",
      "outputs": [
        {
          "internalType": "bool",
          "name": "",
          "type": "bool"
        }
      ],
      "stateMutability": "view",
      "type": "function",
      "constant": true
    }
  ],
  "bytecode": "0x60806040523480156200001157600080fd5b506040518060400160405280600881526020017f456c656374696f6e0000000000000000000000000000000000000000000000008152506040518060400160405280600381526020017f4343530000000000000000000000000000000000000000000000000000000000815250816000908051906020019062000096929190620000b8565b508060019080519060200190620000af929190620000b8565b505050620001cd565b828054620000c69062000197565b90600052602060002090601f016020900481019282620000ea576000855562000136565b82601f106200010557805160ff191683800117855562000136565b8280016001018555821562000136579182015b828111156200013557825182559160200191906001019062000118565b5b50905062000145919062000149565b5090565b5b80821115620001645760008160009055506001016200014a565b5090565b7f4e487b7100000000000000000000000000000000000000000000000000000000600052602260045260246000fd5b60006002820490506001821680620001b057607f821691505b60208210811415620001c757620001c662000168565b5b50919050565b61353880620001dd6000396000f3fe608060405234801561001057600080fd5b50600436106101425760003560e01c80634f6ccce7116100b857806395d89b411161007c57806395d89b41146103af578063a22cb465146103cd578063a3ec138d146103e9578063b88d4fde14610419578063c87b56dd14610435578063e985e9c51461046557610142565b80634f6ccce7146102d357806359cdef6c146103035780636352211e1461033357806370a08231146103635780637ab6199a1461039357610142565b806318160ddd1161010a57806318160ddd146101fd57806323b872dd1461021b5780632d35a8a2146102375780632f745c59146102555780633477ee2e1461028557806342842e0e146102b757610142565b80630121b93f1461014757806301ffc9a71461016357806306fdde0314610193578063081812fc146101b1578063095ea7b3146101e1575b600080fd5b610161600480360381019061015c9190612207565b610495565b005b61017d6004803603810190610178919061228c565b61058e565b60405161018a91906122d4565b60405180910390f35b61019b6105a0565b6040516101a89190612388565b60405180910390f35b6101cb60048036038101906101c69190612207565b610632565b6040516101d891906123eb565b60405180910390f35b6101fb60048036038101906101f69190612432565b6106b7565b005b6102056107cf565b6040516102129190612481565b60405180910390f35b6102356004803603810190610230919061249c565b6107dc565b005b61023f61083c565b60405161024c9190612481565b60405180910390f35b61026f600480360381019061026a9190612432565b610842565b60405161027c9190612481565b60405180910390f35b61029f600480360381019061029a9190612207565b6108e7565b6040516102ae939291906124ef565b60405180910390f35b6102d160048036038101906102cc919061249c565b610999565b005b6102ed60048036038101906102e89190612207565b6109b9565b6040516102fa9190612481565b60405180910390f35b61031d60048036038101906103189190612207565b610a2a565b60405161032a9190612388565b60405180910390f35b61034d60048036038101906103489190612207565b610ad6565b60405161035a91906123eb565b60405180910390f35b61037d6004803603810190610378919061252d565b610b88565b60405161038a9190612481565b60405180910390f35b6103ad60048036038101906103a8919061268f565b610c40565b005b6103b7610c4c565b6040516103c49190612388565b60405180910390f35b6103e760048036038101906103e29190612704565b610cde565b005b61040360048036038101906103fe919061252d565b610cf4565b60405161041091906122d4565b60405180910390f35b610433600480360381019061042e91906127e5565b610d14565b005b61044f600480360381019061044a9190612207565b610d76565b60405161045c9190612388565b60405180910390f35b61047f600480360381019061047a9190612868565b610e1d565b60405161048c91906122d4565b60405180910390f35b600a60003373ffffffffffffffffffffffffffffffffffffffff1673ffffffffffffffffffffffffffffffffffffffff16815260200190815260200160002060009054906101000a900460ff16156104ec57600080fd5b6000811180156104fe5750600c548111155b61050757600080fd5b6001600a60003373ffffffffffffffffffffffffffffffffffffffff1673ffffffffffffffffffffffffffffffffffffffff16815260200190815260200160002060006101000a81548160ff021916908315150217905550600b60008281526020019081526020016000206002016000815480929190610586906128d7565b919050555050565b600061059982610eb1565b9050919050565b6060600080546105af9061294f565b80601f01602080910402602001604051908101604052809291908181526020018280546105db9061294f565b80156106285780601f106105fd57610100808354040283529160200191610628565b820191906000526020600020905b81548152906001019060200180831161060b57829003601f168201915b5050505050905090565b600061063d82610f2b565b61067c576040517f08c379a0000000000000000000000000000000000000000000000000000000008152600401610673906129f3565b60405180910390fd5b6004600083815260200190815260200160002060009054906101000a900473ffffffffffffffffffffffffffffffffffffffff169050919050565b60006106c282610ad6565b90508073ffffffffffffffffffffffffffffffffffffffff168373ffffffffffffffffffffffffffffffffffffffff161415610733576040517f08c379a000000000000000000000000000000000000000000000000000000000815260040161072a90612a85565b60405180910390fd5b8073ffffffffffffffffffffffffffffffffffffffff16610752610f97565b73ffffffffffffffffffffffffffffffffffffffff16148061078157506107808161077b610f97565b610e1d565b5b6107c0576040517f08c379a00000000000000000000000000000000000000000000000000000000081526004016107b790612b17565b60405180910390fd5b6107ca8383610f9f565b505050565b6000600880549050905090565b6107ed6107e7610f97565b82611058565b61082c576040517f08c379a000000000000000000000000000000000000000000000000000000000815260040161082390612ba9565b60405180910390fd5b610837838383611136565b505050565b600c5481565b600061084d83610b88565b821061088e576040517f08c379a000000000000000000000000000000000000000000000000000000000815260040161088590612c3b565b60405180910390fd5b600660008473ffffffffffffffffffffffffffffffffffffffff1673ffffffffffffffffffffffffffffffffffffffff168152602001908152602001600020600083815260200190815260200160002054905092915050565b600b6020528060005260406000206000915090508060000154908060010180546109109061294f565b80601f016020809104026020016040519081016040528092919081815260200182805461093c9061294f565b80156109895780601f1061095e57610100808354040283529160200191610989565b820191906000526020600020905b81548152906001019060200180831161096c57829003601f168201915b5050505050908060020154905083565b6109b483838360405180602001604052806000815250610d14565b505050565b60006109c36107cf565b8210610a04576040517f08c379a00000000000000000000000000000000000000000000000000000000081526004016109fb90612ccd565b60405180910390fd5b60088281548110610a1857610a17612ced565b5b90600052602060002001549050919050565b600d8181548110610a3a57600080fd5b906000526020600020016000915090508054610a559061294f565b80601f0160208091040260200160405190810160405280929190818152602001828054610a819061294f565b8015610ace5780601f10610aa357610100808354040283529160200191610ace565b820191906000526020600020905b815481529060010190602001808311610ab157829003601f168201915b505050505081565b6000806002600084815260200190815260200160002060009054906101000a900473ffffffffffffffffffffffffffffffffffffffff169050600073ffffffffffffffffffffffffffffffffffffffff168173ffffffffffffffffffffffffffffffffffffffff161415610b7f576040517f08c379a0000000000000000000000000000000000000000000000000000000008152600401610b7690612d8e565b60405180910390fd5b80915050919050565b60008073ffffffffffffffffffffffffffffffffffffffff168273ffffffffffffffffffffffffffffffffffffffff161415610bf9576040517f08c379a0000000000000000000000000000000000000000000000000000000008152600401610bf090612e20565b60405180910390fd5b600360008373ffffffffffffffffffffffffffffffffffffffff1673ffffffffffffffffffffffffffffffffffffffff168152602001908152602001600020549050919050565b610c498161139d565b50565b606060018054610c5b9061294f565b80601f0160208091040260200160405190810160405280929190818152602001828054610c879061294f565b8015610cd45780601f10610ca957610100808354040283529160200191610cd4565b820191906000526020600020905b815481529060010190602001808311610cb757829003601f168201915b5050505050905090565b610cf0610ce9610f97565b83836114d4565b5050565b600a6020528060005260406000206000915054906101000a900460ff1681565b610d25610d1f610f97565b83611058565b610d64576040517f08c379a0000000000000000000000000000000000000000000000000000000008152600401610d5b90612ba9565b60405180910390fd5b610d7084848484611641565b50505050565b6060610d8182610f2b565b610dc0576040517f08c379a0000000000000000000000000000000000000000000000000000000008152600401610db790612eb2565b60405180910390fd5b6000610dca61169d565b90506000815111610dea5760405180602001604052806000815250610e15565b80610df4846116b4565b604051602001610e05929190612f0e565b6040516020818303038152906040525b915050919050565b6000600560008473ffffffffffffffffffffffffffffffffffffffff1673ffffffffffffffffffffffffffffffffffffffff16815260200190815260200160002060008373ffffffffffffffffffffffffffffffffffffffff1673ffffffffffffffffffffffffffffffffffffffff16815260200190815260200160002060009054906101000a900460ff16905092915050565b60007f780e9d63000000000000000000000000000000000000000000000000000000007bffffffffffffffffffffffffffffffffffffffffffffffffffffffff1916827bffffffffffffffffffffffffffffffffffffffffffffffffffffffff19161480610f245750610f2382611815565b5b9050919050565b60008073ffffffffffffffffffffffffffffffffffffffff166002600084815260200190815260200160002060009054906101000a900473ffffffffffffffffffffffffffffffffffffffff1673ffffffffffffffffffffffffffffffffffffffff1614159050919050565b600033905090565b816004600083815260200190815260200160002060006101000a81548173ffffffffffffffffffffffffffffffffffffffff021916908373ffffffffffffffffffffffffffffffffffffffff160217905550808273ffffffffffffffffffffffffffffffffffffffff1661101283610ad6565b73ffffffffffffffffffffffffffffffffffffffff167f8c5be1e5ebec7d5bd14f71427d1e84f3dd0314c0f7b2291e5b200ac8c7c3b92560405160405180910390a45050565b600061106382610f2b565b6110a2576040517f08c379a000000000000000000000000000000000000000000000000000000000815260040161109990612fa4565b60405180910390fd5b60006110ad83610ad6565b90508073ffffffffffffffffffffffffffffffffffffffff168473ffffffffffffffffffffffffffffffffffffffff1614806110ef57506110ee8185610e1d565b5b8061112d57508373ffffffffffffffffffffffffffffffffffffffff1661111584610632565b73ffffffffffffffffffffffffffffffffffffffff16145b91505092915050565b8273ffffffffffffffffffffffffffffffffffffffff1661115682610ad6565b73ffffffffffffffffffffffffffffffffffffffff16146111ac576040517f08c379a00000000000000000000000000000000000000000000000000000000081526004016111a390613036565b60405180910390fd5b600073ffffffffffffffffffffffffffffffffffffffff168273ffffffffffffffffffffffffffffffffffffffff16141561121c576040517f08c379a0000000000000000000000000000000000000000000000000000000008152600401611213906130c8565b60405180910390fd5b6112278383836118f7565b611232600082610f9f565b6001600360008573ffffffffffffffffffffffffffffffffffffffff1673ffffffffffffffffffffffffffffffffffffffff168152602001908152602001600020600082825461128291906130e8565b925050819055506001600360008473ffffffffffffffffffffffffffffffffffffffff1673ffffffffffffffffffffffffffffffffffffffff16815260200190815260200160002060008282546112d9919061311c565b92505081905550816002600083815260200190815260200160002060006101000a81548173ffffffffffffffffffffffffffffffffffffffff021916908373ffffffffffffffffffffffffffffffffffffffff160217905550808273ffffffffffffffffffffffffffffffffffffffff168473ffffffffffffffffffffffffffffffffffffffff167fddf252ad1be2c89b69c2b068fc378daa952ba7f163c4a11628f55a4df523b3ef60405160405180910390a4611398838383611907565b505050565b600e816040516113ad9190613172565b908152602001604051809103902060009054906101000a900460ff16156113d357600080fd5b600d8190806001815401808255809150506001900390600052602060002001600090919091909150908051906020019061140e92919061211a565b50600c6000815480929190611422906128d7565b919050555061143333600c5461190c565b6001600e826040516114459190613172565b908152602001604051809103902060006101000a81548160ff0219169083151502179055506040518060600160405280600c5481526020018281526020016000815250600b6000600c5481526020019081526020016000206000820151816000015560208201518160010190805190602001906114c392919061211a565b506040820151816002015590505050565b8173ffffffffffffffffffffffffffffffffffffffff168373ffffffffffffffffffffffffffffffffffffffff161415611543576040517f08c379a000000000000000000000000000000000000000000000000000000000815260040161153a906131d5565b60405180910390fd5b80600560008573ffffffffffffffffffffffffffffffffffffffff1673ffffffffffffffffffffffffffffffffffffffff16815260200190815260200160002060008473ffffffffffffffffffffffffffffffffffffffff1673ffffffffffffffffffffffffffffffffffffffff16815260200190815260200160002060006101000a81548160ff0219169083151502179055508173ffffffffffffffffffffffffffffffffffffffff168373ffffffffffffffffffffffffffffffffffffffff167f17307eab39ab6107e8899845ad3d59bd9653f200f220920489ca2b5937696c318360405161163491906122d4565b60405180910390a3505050565b61164c848484611136565b61165884848484611ae6565b611697576040517f08c379a000000000000000000000000000000000000000000000000000000000815260040161168e90613267565b60405180910390fd5b50505050565b606060405180602001604052806000815250905090565b606060008214156116fc576040518060400160405280600181526020017f30000000000000000000000000000000000000000000000000000000000000008152509050611810565b600082905060005b6000821461172e578080611717906128d7565b915050600a8261172791906132b6565b9150611704565b60008167ffffffffffffffff81111561174a57611749612564565b5b6040519080825280601f01601f19166020018201604052801561177c5781602001600182028036833780820191505090505b5090505b600085146118095760018261179591906130e8565b9150600a856117a491906132e7565b60306117b0919061311c565b60f81b8183815181106117c6576117c5612ced565b5b60200101907effffffffffffffffffffffffffffffffffffffffffffffffffffffffffffff1916908160001a905350600a8561180291906132b6565b9450611780565b8093505050505b919050565b60007f80ac58cd000000000000000000000000000000000000000000000000000000007bffffffffffffffffffffffffffffffffffffffffffffffffffffffff1916827bffffffffffffffffffffffffffffffffffffffffffffffffffffffff191614806118e057507f5b5e139f000000000000000000000000000000000000000000000000000000007bffffffffffffffffffffffffffffffffffffffffffffffffffffffff1916827bffffffffffffffffffffffffffffffffffffffffffffffffffffffff1916145b806118f057506118ef82611c6e565b5b9050919050565b611902838383611cd8565b505050565b505050565b600073ffffffffffffffffffffffffffffffffffffffff168273ffffffffffffffffffffffffffffffffffffffff16141561197c576040517f08c379a000000000000000000000000000000000000000000000000000000000815260040161197390613364565b60405180910390fd5b61198581610f2b565b156119c5576040517f08c379a00000000000000000000000000000000000000000000000000000000081526004016119bc906133d0565b60405180910390fd5b6119d1600083836118f7565b6001600360008473ffffffffffffffffffffffffffffffffffffffff1673ffffffffffffffffffffffffffffffffffffffff1681526020019081526020016000206000828254611a21919061311c565b92505081905550816002600083815260200190815260200160002060006101000a81548173ffffffffffffffffffffffffffffffffffffffff021916908373ffffffffffffffffffffffffffffffffffffffff160217905550808273ffffffffffffffffffffffffffffffffffffffff16600073ffffffffffffffffffffffffffffffffffffffff167fddf252ad1be2c89b69c2b068fc378daa952ba7f163c4a11628f55a4df523b3ef60405160405180910390a4611ae260008383611907565b5050565b6000611b078473ffffffffffffffffffffffffffffffffffffffff16611dec565b15611c61578373ffffffffffffffffffffffffffffffffffffffff1663150b7a02611b30610f97565b8786866040518563ffffffff1660e01b8152600401611b529493929190613445565b6020604051808303816000875af1925050508015611b8e57506040513d601f19601f82011682018060405250810190611b8b91906134a6565b60015b611c11573d8060008114611bbe576040519150601f19603f3d011682016040523d82523d6000602084013e611bc3565b606091505b50600081511415611c09576040517f08c379a0000000000000000000000000000000000000000000000000000000008152600401611c0090613267565b60405180910390fd5b805181602001fd5b63150b7a0260e01b7bffffffffffffffffffffffffffffffffffffffffffffffffffffffff1916817bffffffffffffffffffffffffffffffffffffffffffffffffffffffff191614915050611c66565b600190505b949350505050565b60007f01ffc9a7000000000000000000000000000000000000000000000000000000007bffffffffffffffffffffffffffffffffffffffffffffffffffffffff1916827bffffffffffffffffffffffffffffffffffffffffffffffffffffffff1916149050919050565b611ce3838383611e0f565b600073ffffffffffffffffffffffffffffffffffffffff168373ffffffffffffffffffffffffffffffffffffffff161415611d2657611d2181611e14565b611d65565b8173ffffffffffffffffffffffffffffffffffffffff168373ffffffffffffffffffffffffffffffffffffffff1614611d6457611d638382611e5d565b5b5b600073ffffffffffffffffffffffffffffffffffffffff168273ffffffffffffffffffffffffffffffffffffffff161415611da857611da381611fca565b611de7565b8273ffffffffffffffffffffffffffffffffffffffff168273ffffffffffffffffffffffffffffffffffffffff1614611de657611de5828261209b565b5b5b505050565b6000808273ffffffffffffffffffffffffffffffffffffffff163b119050919050565b505050565b6008805490506009600083815260200190815260200160002081905550600881908060018154018082558091505060019003906000526020600020016000909190919091505550565b60006001611e6a84610b88565b611e7491906130e8565b9050600060076000848152602001908152602001600020549050818114611f59576000600660008673ffffffffffffffffffffffffffffffffffffffff1673ffffffffffffffffffffffffffffffffffffffff168152602001908152602001600020600084815260200190815260200160002054905080600660008773ffffffffffffffffffffffffffffffffffffffff1673ffffffffffffffffffffffffffffffffffffffff168152602001908152602001600020600084815260200190815260200160002081905550816007600083815260200190815260200160002081905550505b6007600084815260200190815260200160002060009055600660008573ffffffffffffffffffffffffffffffffffffffff1673ffffffffffffffffffffffffffffffffffffffff16815260200190815260200160002060008381526020019081526020016000206000905550505050565b60006001600880549050611fde91906130e8565b905060006009600084815260200190815260200160002054905060006008838154811061200e5761200d612ced565b5b9060005260206000200154905080600883815481106120305761202f612ced565b5b90600052602060002001819055508160096000838152602001908152602001600020819055506009600085815260200190815260200160002060009055600880548061207f5761207e6134d3565b5b6001900381819060005260206000200160009055905550505050565b60006120a683610b88565b905081600660008573ffffffffffffffffffffffffffffffffffffffff1673ffffffffffffffffffffffffffffffffffffffff168152602001908152602001600020600083815260200190815260200160002081905550806007600084815260200190815260200160002081905550505050565b8280546121269061294f565b90600052602060002090601f016020900481019282612148576000855561218f565b82601f1061216157805160ff191683800117855561218f565b8280016001018555821561218f579182015b8281111561218e578251825591602001919060010190612173565b5b50905061219c91906121a0565b5090565b5b808211156121b95760008160009055506001016121a1565b5090565b6000604051905090565b600080fd5b600080fd5b6000819050919050565b6121e4816121d1565b81146121ef57600080fd5b50565b600081359050612201816121db565b92915050565b60006020828403121561221d5761221c6121c7565b5b600061222b848285016121f2565b91505092915050565b60007fffffffff0000000000000000000000000000000000000000000000000000000082169050919050565b61226981612234565b811461227457600080fd5b50565b60008135905061228681612260565b92915050565b6000602082840312156122a2576122a16121c7565b5b60006122b084828501612277565b91505092915050565b60008115159050919050565b6122ce816122b9565b82525050565b60006020820190506122e960008301846122c5565b92915050565b600081519050919050565b600082825260208201905092915050565b60005b8381101561232957808201518184015260208101905061230e565b83811115612338576000848401525b50505050565b6000601f19601f8301169050919050565b600061235a826122ef565b61236481856122fa565b935061237481856020860161230b565b61237d8161233e565b840191505092915050565b600060208201905081810360008301526123a2818461234f565b905092915050565b600073ffffffffffffffffffffffffffffffffffffffff82169050919050565b60006123d5826123aa565b9050919050565b6123e5816123ca565b82525050565b600060208201905061240060008301846123dc565b92915050565b61240f816123ca565b811461241a57600080fd5b50565b60008135905061242c81612406565b92915050565b60008060408385031215612449576124486121c7565b5b60006124578582860161241d565b9250506020612468858286016121f2565b9150509250929050565b61247b816121d1565b82525050565b60006020820190506124966000830184612472565b92915050565b6000806000606084860312156124b5576124b46121c7565b5b60006124c38682870161241d565b93505060206124d48682870161241d565b92505060406124e5868287016121f2565b9150509250925092565b60006060820190506125046000830186612472565b8181036020830152612516818561234f565b90506125256040830184612472565b949350505050565b600060208284031215612543576125426121c7565b5b60006125518482850161241d565b91505092915050565b600080fd5b600080fd5b7f4e487b7100000000000000000000000000000000000000000000000000000000600052604160045260246000fd5b61259c8261233e565b810181811067ffffffffffffffff821117156125bb576125ba612564565b5b80604052505050565b60006125ce6121bd565b90506125da8282612593565b919050565b600067ffffffffffffffff8211156125fa576125f9612564565b5b6126038261233e565b9050602081019050919050565b82818337600083830152505050565b600061263261262d846125df565b6125c4565b90508281526020810184848401111561264e5761264d61255f565b5b612659848285612610565b509392505050565b600082601f8301126126765761267561255a565b5b813561268684826020860161261f565b91505092915050565b6000602082840312156126a5576126a46121c7565b5b600082013567ffffffffffffffff8111156126c3576126c26121cc565b5b6126cf84828501612661565b91505092915050565b6126e1816122b9565b81146126ec57600080fd5b50565b6000813590506126fe816126d8565b92915050565b6000806040838503121561271b5761271a6121c7565b5b60006127298582860161241d565b925050602061273a858286016126ef565b9150509250929050565b600067ffffffffffffffff82111561275f5761275e612564565b5b6127688261233e565b9050602081019050919050565b600061278861278384612744565b6125c4565b9050828152602081018484840111156127a4576127a361255f565b5b6127af848285612610565b509392505050565b600082601f8301126127cc576127cb61255a565b5b81356127dc848260208601612775565b91505092915050565b600080600080608085870312156127ff576127fe6121c7565b5b600061280d8782880161241d565b945050602061281e8782880161241d565b935050604061282f878288016121f2565b925050606085013567ffffffffffffffff8111156128505761284f6121cc565b5b61285c878288016127b7565b91505092959194509250565b6000806040838503121561287f5761287e6121c7565b5b600061288d8582860161241d565b925050602061289e8582860161241d565b9150509250929050565b7f4e487b7100000000000000000000000000000000000000000000000000000000600052601160045260246000fd5b60006128e2826121d1565b91507fffffffffffffffffffffffffffffffffffffffffffffffffffffffffffffffff821415612915576129146128a8565b5b600182019050919050565b7f4e487b7100000000000000000000000000000000000000000000000000000000600052602260045260246000fd5b6000600282049050600182168061296757607f821691505b6020821081141561297b5761297a612920565b5b50919050565b7f4552433732313a20617070726f76656420717565727920666f72206e6f6e657860008201527f697374656e7420746f6b656e0000000000000000000000000000000000000000602082015250565b60006129dd602c836122fa565b91506129e882612981565b604082019050919050565b60006020820190508181036000830152612a0c816129d0565b9050919050565b7f4552433732313a20617070726f76616c20746f2063757272656e74206f776e6560008201527f7200000000000000000000000000000000000000000000000000000000000000602082015250565b6000612a6f6021836122fa565b9150612a7a82612a13565b604082019050919050565b60006020820190508181036000830152612a9e81612a62565b9050919050565b7f4552433732313a20617070726f76652063616c6c6572206973206e6f74206f7760008201527f6e6572206e6f7220617070726f76656420666f7220616c6c0000000000000000602082015250565b6000612b016038836122fa565b9150612b0c82612aa5565b604082019050919050565b60006020820190508181036000830152612b3081612af4565b9050919050565b7f4552433732313a207472616e736665722063616c6c6572206973206e6f74206f60008201527f776e6572206e6f7220617070726f766564000000000000000000000000000000602082015250565b6000612b936031836122fa565b9150612b9e82612b37565b604082019050919050565b60006020820190508181036000830152612bc281612b86565b9050919050565b7f455243373231456e756d657261626c653a206f776e657220696e646578206f7560008201527f74206f6620626f756e6473000000000000000000000000000000000000000000602082015250565b6000612c25602b836122fa565b9150612c3082612bc9565b604082019050919050565b60006020820190508181036000830152612c5481612c18565b9050919050565b7f455243373231456e756d657261626c653a20676c6f62616c20696e646578206f60008201527f7574206f6620626f756e64730000000000000000000000000000000000000000602082015250565b6000612cb7602c836122fa565b9150612cc282612c5b565b604082019050919050565b60006020820190508181036000830152612ce681612caa565b9050919050565b7f4e487b7100000000000000000000000000000000000000000000000000000000600052603260045260246000fd5b7f4552433732313a206f776e657220717565727920666f72206e6f6e657869737460008201527f656e7420746f6b656e0000000000000000000000000000000000000000000000602082015250565b6000612d786029836122fa565b9150612d8382612d1c565b604082019050919050565b60006020820190508181036000830152612da781612d6b565b9050919050565b7f4552433732313a2062616c616e636520717565727920666f7220746865207a6560008201527f726f206164647265737300000000000000000000000000000000000000000000602082015250565b6000612e0a602a836122fa565b9150612e1582612dae565b604082019050919050565b60006020820190508181036000830152612e3981612dfd565b9050919050565b7f4552433732314d657461646174613a2055524920717565727920666f72206e6f60008201527f6e6578697374656e7420746f6b656e0000000000000000000000000000000000602082015250565b6000612e9c602f836122fa565b9150612ea782612e40565b604082019050919050565b60006020820190508181036000830152612ecb81612e8f565b9050919050565b600081905092915050565b6000612ee8826122ef565b612ef28185612ed2565b9350612f0281856020860161230b565b80840191505092915050565b6000612f1a8285612edd565b9150612f268284612edd565b91508190509392505050565b7f4552433732313a206f70657261746f7220717565727920666f72206e6f6e657860008201527f697374656e7420746f6b656e0000000000000000000000000000000000000000602082015250565b6000612f8e602c836122fa565b9150612f9982612f32565b604082019050919050565b60006020820190508181036000830152612fbd81612f81565b9050919050565b7f4552433732313a207472616e736665722066726f6d20696e636f72726563742060008201527f6f776e6572000000000000000000000000000000000000000000000000000000602082015250565b60006130206025836122fa565b915061302b82612fc4565b604082019050919050565b6000602082019050818103600083015261304f81613013565b9050919050565b7f4552433732313a207472616e7366657220746f20746865207a65726f2061646460008201527f7265737300000000000000000000000000000000000000000000000000000000602082015250565b60006130b26024836122fa565b91506130bd82613056565b604082019050919050565b600060208201905081810360008301526130e1816130a5565b9050919050565b60006130f3826121d1565b91506130fe836121d1565b925082821015613111576131106128a8565b5b828203905092915050565b6000613127826121d1565b9150613132836121d1565b9250827fffffffffffffffffffffffffffffffffffffffffffffffffffffffffffffffff03821115613167576131666128a8565b5b828201905092915050565b600061317e8284612edd565b915081905092915050565b7f4552433732313a20617070726f766520746f2063616c6c657200000000000000600082015250565b60006131bf6019836122fa565b91506131ca82613189565b602082019050919050565b600060208201905081810360008301526131ee816131b2565b9050919050565b7f4552433732313a207472616e7366657220746f206e6f6e20455243373231526560008201527f63656976657220696d706c656d656e7465720000000000000000000000000000602082015250565b60006132516032836122fa565b915061325c826131f5565b604082019050919050565b6000602082019050818103600083015261328081613244565b9050919050565b7f4e487b7100000000000000000000000000000000000000000000000000000000600052601260045260246000fd5b60006132c1826121d1565b91506132cc836121d1565b9250826132dc576132db613287565b5b828204905092915050565b60006132f2826121d1565b91506132fd836121d1565b92508261330d5761330c613287565b5b828206905092915050565b7f4552433732313a206d696e7420746f20746865207a65726f2061646472657373600082015250565b600061334e6020836122fa565b915061335982613318565b602082019050919050565b6000602082019050818103600083015261337d81613341565b9050919050565b7f4552433732313a20746f6b656e20616c7265616479206d696e74656400000000600082015250565b60006133ba601c836122fa565b91506133c582613384565b602082019050919050565b600060208201905081810360008301526133e9816133ad565b9050919050565b600081519050919050565b600082825260208201905092915050565b6000613417826133f0565b61342181856133fb565b935061343181856020860161230b565b61343a8161233e565b840191505092915050565b600060808201905061345a60008301876123dc565b61346760208301866123dc565b6134746040830185612472565b8181036060830152613486818461340c565b905095945050505050565b6000815190506134a081612260565b92915050565b6000602082840312156134bc576134bb6121c7565b5b60006134ca84828501613491565b91505092915050565b7f4e487b7100000000000000000000000000000000000000000000000000000000600052603160045260246000fdfea2646970667358221220b425344879513b90da36ada9ff10eec7089096fe57d734e2fdc130bc29a3b38a64736f6c634300080b0033",
  "immutableReferences": {},
  "source": "// SPDX-License-Identifier: MIT\r\npragma solidity ^0.8.0;\r\n\r\nimport \"@openzeppelin/contracts/token/ERC721/ERC721.sol\";\r\nimport \"@openzeppelin/contracts/token/ERC721/extensions/ERC721Enumerable.sol\";\r\n\r\ncontract Election is ERC721, ERC721Enumerable {\r\n    constructor() ERC721(\"Election\", \"CCS\") {\r\n        //hi\r\n    }\r\n\r\n    struct candidate {\r\n        uint256 id;\r\n        string name;\r\n        uint256 votecount;\r\n    }\r\n\r\n    mapping(address => bool) public voters;\r\n    mapping(uint256 => candidate) public candidates;\r\n    // Store Candidate Count;\r\n    uint256 public candidatesCount;\r\n    string[] public candi;\r\n    mapping(string => bool) _candiExists;\r\n\r\n    function Contestent(string memory _name) public {\r\n        addCandidate(_name);\r\n    }\r\n\r\n    function addCandidate(string memory _name) private {\r\n        require(!_candiExists[_name]);\r\n        candi.push(_name);\r\n        candidatesCount++;\r\n        _mint(msg.sender, candidatesCount);\r\n        _candiExists[_name] = true;\r\n        candidates[candidatesCount] = candidate(candidatesCount, _name, 0);\r\n    }\r\n\r\n    function vote(uint256 _candidateId) public {\r\n        require(!voters[msg.sender]);\r\n        require(_candidateId > 0 && _candidateId <= candidatesCount);\r\n        voters[msg.sender] = true;\r\n        candidates[_candidateId].votecount++;\r\n    }\r\n\r\n    function _beforeTokenTransfer(\r\n        address from,\r\n        address to,\r\n        uint256 tokenId\r\n    ) internal override(ERC721, ERC721Enumerable) {\r\n        super._beforeTokenTransfer(from, to, tokenId);\r\n    }\r\n\r\n    function supportsInterface(bytes4 interfaceId)\r\n        public\r\n        view\r\n        override(ERC721, ERC721Enumerable)\r\n        returns (bool)\r\n    {\r\n        return super.supportsInterface(interfaceId);\r\n    }\r\n}\r\n",
  "sourcePath": "C:\\Coding\\Blockchain\\dApps\\votingPoll\\contracts\\Election.sol",
  "compiler": {
    "name": "solc",
    "version": "0.8.11+commit.d7f03943.Emscripten.clang"
  },
  "schemaVersion": "3.4.7",
  "updatedAt": "2022-06-20T17:39:08.648Z",
  "networkType": "ethereum",
  "devdoc": {
    "kind": "dev",
    "methods": {
      "approve(address,uint256)": {
        "details": "See {IERC721-approve}."
      },
      "balanceOf(address)": {
        "details": "See {IERC721-balanceOf}."
      },
      "getApproved(uint256)": {
        "details": "See {IERC721-getApproved}."
      },
      "isApprovedForAll(address,address)": {
        "details": "See {IERC721-isApprovedForAll}."
      },
      "name()": {
        "details": "See {IERC721Metadata-name}."
      },
      "ownerOf(uint256)": {
        "details": "See {IERC721-ownerOf}."
      },
      "safeTransferFrom(address,address,uint256)": {
        "details": "See {IERC721-safeTransferFrom}."
      },
      "safeTransferFrom(address,address,uint256,bytes)": {
        "details": "See {IERC721-safeTransferFrom}."
      },
      "setApprovalForAll(address,bool)": {
        "details": "See {IERC721-setApprovalForAll}."
      },
      "symbol()": {
        "details": "See {IERC721Metadata-symbol}."
      },
      "tokenByIndex(uint256)": {
        "details": "See {IERC721Enumerable-tokenByIndex}."
      },
      "tokenOfOwnerByIndex(address,uint256)": {
        "details": "See {IERC721Enumerable-tokenOfOwnerByIndex}."
      },
      "tokenURI(uint256)": {
        "details": "See {IERC721Metadata-tokenURI}."
      },
      "totalSupply()": {
        "details": "See {IERC721Enumerable-totalSupply}."
      },
      "transferFrom(address,address,uint256)": {
        "details": "See {IERC721-transferFrom}."
      }
    },
    "version": 1
  },
  "userdoc": {
    "kind": "user",
    "methods": {},
    "version": 1
  }
}